{"contracts/DataVal.sol":{"DataVal":{"abi":[{"inputs":[{"internalType":"uint256","name":"","type":"uint256"}],"name":"hashData","outputs":[{"internalType":"string","name":"username","type":"string"},{"internalType":"string","name":"data","type":"string"},{"internalType":"bytes32","name":"Hash","type":"bytes32"}],"stateMutability":"view","type":"function"},{"inputs":[{"internalType":"string","name":"_data","type":"string"}],"name":"searchData","outputs":[{"internalType":"bool","name":"","type":"bool"}],"stateMutability":"view","type":"function"},{"inputs":[{"internalType":"string","name":"_username","type":"string"},{"internalType":"string","name":"_data","type":"string"}],"name":"storeHashData","outputs":[{"internalType":"bytes32","name":"","type":"bytes32"}],"stateMutability":"nonpayable","type":"function"}],"evm":{"bytecode":{"linkReferences":{},"object":"608060405234801561001057600080fd5b50610b47806100206000396000f3fe608060405234801561001057600080fd5b50600436106100415760003560e01c80637f2ceeab146100465780639512182e14610076578063dbf6cb72146100a8575b600080fd5b610060600480360381019061005b91906104c5565b6100d8565b60405161006d9190610556565b60405180910390f35b610090600480360381019061008b91906105a7565b610173565b60405161009f93929190610653565b60405180910390f35b6100c260048036038101906100bd9190610698565b6102bd565b6040516100cf91906106fc565b60405180910390f35b6000808280519060200120905060006040518060600160405280868152602001858152602001838152509050600081908060018154018082558091505060019003906000526020600020906003020160009091909190915060008201518160000190816101459190610923565b50602082015181600101908161015b9190610923565b50604082015181600201555050819250505092915050565b6000818154811061018357600080fd5b90600052602060002090600302016000915090508060000180546101a690610746565b80601f01602080910402602001604051908101604052809291908181526020018280546101d290610746565b801561021f5780601f106101f45761010080835404028352916020019161021f565b820191906000526020600020905b81548152906001019060200180831161020257829003601f168201915b50505050509080600101805461023490610746565b80601f016020809104026020016040519081016040528092919081815260200182805461026090610746565b80156102ad5780601f10610282576101008083540402835291602001916102ad565b820191906000526020600020905b81548152906001019060200180831161029057829003601f168201915b5050505050908060020154905083565b600080600090505b60008054905081101561036057826040516020016102e39190610a31565b604051602081830303815290604052805190602001206000828154811061030d5761030c610a48565b5b906000526020600020906003020160010160405160200161032e9190610afa565b6040516020818303038152906040528051906020012003610353576001915050610366565b80806001019150506102c5565b50600090505b919050565b6000604051905090565b600080fd5b600080fd5b600080fd5b600080fd5b6000601f19601f8301169050919050565b7f4e487b7100000000000000000000000000000000000000000000000000000000600052604160045260246000fd5b6103d282610389565b810181811067ffffffffffffffff821117156103f1576103f061039a565b5b80604052505050565b600061040461036b565b905061041082826103c9565b919050565b600067ffffffffffffffff8211156104305761042f61039a565b5b61043982610389565b9050602081019050919050565b82818337600083830152505050565b600061046861046384610415565b6103fa565b90508281526020810184848401111561048457610483610384565b5b61048f848285610446565b509392505050565b600082601f8301126104ac576104ab61037f565b5b81356104bc848260208601610455565b91505092915050565b600080604083850312156104dc576104db610375565b5b600083013567ffffffffffffffff8111156104fa576104f961037a565b5b61050685828601610497565b925050602083013567ffffffffffffffff8111156105275761052661037a565b5b61053385828601610497565b9150509250929050565b6000819050919050565b6105508161053d565b82525050565b600060208201905061056b6000830184610547565b92915050565b6000819050919050565b61058481610571565b811461058f57600080fd5b50565b6000813590506105a18161057b565b92915050565b6000602082840312156105bd576105bc610375565b5b60006105cb84828501610592565b91505092915050565b600081519050919050565b600082825260208201905092915050565b60005b8381101561060e5780820151818401526020810190506105f3565b60008484015250505050565b6000610625826105d4565b61062f81856105df565b935061063f8185602086016105f0565b61064881610389565b840191505092915050565b6000606082019050818103600083015261066d818661061a565b90508181036020830152610681818561061a565b90506106906040830184610547565b949350505050565b6000602082840312156106ae576106ad610375565b5b600082013567ffffffffffffffff8111156106cc576106cb61037a565b5b6106d884828501610497565b91505092915050565b60008115159050919050565b6106f6816106e1565b82525050565b600060208201905061071160008301846106ed565b92915050565b7f4e487b7100000000000000000000000000000000000000000000000000000000600052602260045260246000fd5b6000600282049050600182168061075e57607f821691505b60208210810361077157610770610717565b5b50919050565b60008190508160005260206000209050919050565b60006020601f8301049050919050565b600082821b905092915050565b6000600883026107d97fffffffffffffffffffffffffffffffffffffffffffffffffffffffffffffffff8261079c565b6107e3868361079c565b95508019841693508086168417925050509392505050565b6000819050919050565b600061082061081b61081684610571565b6107fb565b610571565b9050919050565b6000819050919050565b61083a83610805565b61084e61084682610827565b8484546107a9565b825550505050565b600090565b610863610856565b61086e818484610831565b505050565b5b818110156108925761088760008261085b565b600181019050610874565b5050565b601f8211156108d7576108a881610777565b6108b18461078c565b810160208510156108c0578190505b6108d46108cc8561078c565b830182610873565b50505b505050565b600082821c905092915050565b60006108fa600019846008026108dc565b1980831691505092915050565b600061091383836108e9565b9150826002028217905092915050565b61092c826105d4565b67ffffffffffffffff8111156109455761094461039a565b5b61094f8254610746565b61095a828285610896565b600060209050601f83116001811461098d576000841561097b578287015190505b6109858582610907565b8655506109ed565b601f19841661099b86610777565b60005b828110156109c35784890151825560018201915060208501945060208101905061099e565b868310156109e057848901516109dc601f8916826108e9565b8355505b6001600288020188555050505b505050505050565b600081905092915050565b6000610a0b826105d4565b610a1581856109f5565b9350610a258185602086016105f0565b80840191505092915050565b6000610a3d8284610a00565b915081905092915050565b7f4e487b7100000000000000000000000000000000000000000000000000000000600052603260045260246000fd5b60008154610a8481610746565b610a8e81866109f5565b94506001821660008114610aa95760018114610abe57610af1565b60ff1983168652811515820286019350610af1565b610ac785610777565b60005b83811015610ae957815481890152600182019150602081019050610aca565b838801955050505b50505092915050565b6000610b068284610a77565b91508190509291505056fea26469706673582212207b9f0fa88c91c1e4d1d4802b30fd867eede97fc9464dda52819968add7d75a7a64736f6c63430008180033","opcodes":"PUSH1 0x80 PUSH1 0x40 MSTORE CALLVALUE DUP1 ISZERO PUSH2 0x10 JUMPI PUSH1 0x0 DUP1 REVERT JUMPDEST POP PUSH2 0xB47 DUP1 PUSH2 0x20 PUSH1 0x0 CODECOPY PUSH1 0x0 RETURN INVALID PUSH1 0x80 PUSH1 0x40 MSTORE CALLVALUE DUP1 ISZERO PUSH2 0x10 JUMPI PUSH1 0x0 DUP1 REVERT JUMPDEST POP PUSH1 0x4 CALLDATASIZE LT PUSH2 0x41 JUMPI PUSH1 0x0 CALLDATALOAD PUSH1 0xE0 SHR DUP1 PUSH4 0x7F2CEEAB EQ PUSH2 0x46 JUMPI DUP1 PUSH4 0x9512182E EQ PUSH2 0x76 JUMPI DUP1 PUSH4 0xDBF6CB72 EQ PUSH2 0xA8 JUMPI JUMPDEST PUSH1 0x0 DUP1 REVERT JUMPDEST PUSH2 0x60 PUSH1 0x4 DUP1 CALLDATASIZE SUB DUP2 ADD SWAP1 PUSH2 0x5B SWAP2 SWAP1 PUSH2 0x4C5 JUMP JUMPDEST PUSH2 0xD8 JUMP JUMPDEST PUSH1 0x40 MLOAD PUSH2 0x6D SWAP2 SWAP1 PUSH2 0x556 JUMP JUMPDEST PUSH1 0x40 MLOAD DUP1 SWAP2 SUB SWAP1 RETURN JUMPDEST PUSH2 0x90 PUSH1 0x4 DUP1 CALLDATASIZE SUB DUP2 ADD SWAP1 PUSH2 0x8B SWAP2 SWAP1 PUSH2 0x5A7 JUMP JUMPDEST PUSH2 0x173 JUMP JUMPDEST PUSH1 0x40 MLOAD PUSH2 0x9F SWAP4 SWAP3 SWAP2 SWAP1 PUSH2 0x653 JUMP JUMPDEST PUSH1 0x40 MLOAD DUP1 SWAP2 SUB SWAP1 RETURN JUMPDEST PUSH2 0xC2 PUSH1 0x4 DUP1 CALLDATASIZE SUB DUP2 ADD SWAP1 PUSH2 0xBD SWAP2 SWAP1 PUSH2 0x698 JUMP JUMPDEST PUSH2 0x2BD JUMP JUMPDEST PUSH1 0x40 MLOAD PUSH2 0xCF SWAP2 SWAP1 PUSH2 0x6FC JUMP JUMPDEST PUSH1 0x40 MLOAD DUP1 SWAP2 SUB SWAP1 RETURN JUMPDEST PUSH1 0x0 DUP1 DUP3 DUP1 MLOAD SWAP1 PUSH1 0x20 ADD KECCAK256 SWAP1 POP PUSH1 0x0 PUSH1 0x40 MLOAD DUP1 PUSH1 0x60 ADD PUSH1 0x40 MSTORE DUP1 DUP7 DUP2 MSTORE PUSH1 0x20 ADD DUP6 DUP2 MSTORE PUSH1 0x20 ADD DUP4 DUP2 MSTORE POP SWAP1 POP PUSH1 0x0 DUP2 SWAP1 DUP1 PUSH1 0x1 DUP2 SLOAD ADD DUP1 DUP3 SSTORE DUP1 SWAP2 POP POP PUSH1 0x1 SWAP1 SUB SWAP1 PUSH1 0x0 MSTORE PUSH1 0x20 PUSH1 0x0 KECCAK256 SWAP1 PUSH1 0x3 MUL ADD PUSH1 0x0 SWAP1 SWAP2 SWAP1 SWAP2 SWAP1 SWAP2 POP PUSH1 0x0 DUP3 ADD MLOAD DUP2 PUSH1 0x0 ADD SWAP1 DUP2 PUSH2 0x145 SWAP2 SWAP1 PUSH2 0x923 JUMP JUMPDEST POP PUSH1 0x20 DUP3 ADD MLOAD DUP2 PUSH1 0x1 ADD SWAP1 DUP2 PUSH2 0x15B SWAP2 SWAP1 PUSH2 0x923 JUMP JUMPDEST POP PUSH1 0x40 DUP3 ADD MLOAD DUP2 PUSH1 0x2 ADD SSTORE POP POP DUP2 SWAP3 POP POP POP SWAP3 SWAP2 POP POP JUMP JUMPDEST PUSH1 0x0 DUP2 DUP2 SLOAD DUP2 LT PUSH2 0x183 JUMPI PUSH1 0x0 DUP1 REVERT JUMPDEST SWAP1 PUSH1 0x0 MSTORE PUSH1 0x20 PUSH1 0x0 KECCAK256 SWAP1 PUSH1 0x3 MUL ADD PUSH1 0x0 SWAP2 POP SWAP1 POP DUP1 PUSH1 0x0 ADD DUP1 SLOAD PUSH2 0x1A6 SWAP1 PUSH2 0x746 JUMP JUMPDEST DUP1 PUSH1 0x1F ADD PUSH1 0x20 DUP1 SWAP2 DIV MUL PUSH1 0x20 ADD PUSH1 0x40 MLOAD SWAP1 DUP2 ADD PUSH1 0x40 MSTORE DUP1 SWAP3 SWAP2 SWAP1 DUP2 DUP2 MSTORE PUSH1 0x20 ADD DUP3 DUP1 SLOAD PUSH2 0x1D2 SWAP1 PUSH2 0x746 JUMP JUMPDEST DUP1 ISZERO PUSH2 0x21F JUMPI DUP1 PUSH1 0x1F LT PUSH2 0x1F4 JUMPI PUSH2 0x100 DUP1 DUP4 SLOAD DIV MUL DUP4 MSTORE SWAP2 PUSH1 0x20 ADD SWAP2 PUSH2 0x21F JUMP JUMPDEST DUP3 ADD SWAP2 SWAP1 PUSH1 0x0 MSTORE PUSH1 0x20 PUSH1 0x0 KECCAK256 SWAP1 JUMPDEST DUP2 SLOAD DUP2 MSTORE SWAP1 PUSH1 0x1 ADD SWAP1 PUSH1 0x20 ADD DUP1 DUP4 GT PUSH2 0x202 JUMPI DUP3 SWAP1 SUB PUSH1 0x1F AND DUP3 ADD SWAP2 JUMPDEST POP POP POP POP POP SWAP1 DUP1 PUSH1 0x1 ADD DUP1 SLOAD PUSH2 0x234 SWAP1 PUSH2 0x746 JUMP JUMPDEST DUP1 PUSH1 0x1F ADD PUSH1 0x20 DUP1 SWAP2 DIV MUL PUSH1 0x20 ADD PUSH1 0x40 MLOAD SWAP1 DUP2 ADD PUSH1 0x40 MSTORE DUP1 SWAP3 SWAP2 SWAP1 DUP2 DUP2 MSTORE PUSH1 0x20 ADD DUP3 DUP1 SLOAD PUSH2 0x260 SWAP1 PUSH2 0x746 JUMP JUMPDEST DUP1 ISZERO PUSH2 0x2AD JUMPI DUP1 PUSH1 0x1F LT PUSH2 0x282 JUMPI PUSH2 0x100 DUP1 DUP4 SLOAD DIV MUL DUP4 MSTORE SWAP2 PUSH1 0x20 ADD SWAP2 PUSH2 0x2AD JUMP JUMPDEST DUP3 ADD SWAP2 SWAP1 PUSH1 0x0 MSTORE PUSH1 0x20 PUSH1 0x0 KECCAK256 SWAP1 JUMPDEST DUP2 SLOAD DUP2 MSTORE SWAP1 PUSH1 0x1 ADD SWAP1 PUSH1 0x20 ADD DUP1 DUP4 GT PUSH2 0x290 JUMPI DUP3 SWAP1 SUB PUSH1 0x1F AND DUP3 ADD SWAP2 JUMPDEST POP POP POP POP POP SWAP1 DUP1 PUSH1 0x2 ADD SLOAD SWAP1 POP DUP4 JUMP JUMPDEST PUSH1 0x0 DUP1 PUSH1 0x0 SWAP1 POP JUMPDEST PUSH1 0x0 DUP1 SLOAD SWAP1 POP DUP2 LT ISZERO PUSH2 0x360 JUMPI DUP3 PUSH1 0x40 MLOAD PUSH1 0x20 ADD PUSH2 0x2E3 SWAP2 SWAP1 PUSH2 0xA31 JUMP JUMPDEST PUSH1 0x40 MLOAD PUSH1 0x20 DUP2 DUP4 SUB SUB DUP2 MSTORE SWAP1 PUSH1 0x40 MSTORE DUP1 MLOAD SWAP1 PUSH1 0x20 ADD KECCAK256 PUSH1 0x0 DUP3 DUP2 SLOAD DUP2 LT PUSH2 0x30D JUMPI PUSH2 0x30C PUSH2 0xA48 JUMP JUMPDEST JUMPDEST SWAP1 PUSH1 0x0 MSTORE PUSH1 0x20 PUSH1 0x0 KECCAK256 SWAP1 PUSH1 0x3 MUL ADD PUSH1 0x1 ADD PUSH1 0x40 MLOAD PUSH1 0x20 ADD PUSH2 0x32E SWAP2 SWAP1 PUSH2 0xAFA JUMP JUMPDEST PUSH1 0x40 MLOAD PUSH1 0x20 DUP2 DUP4 SUB SUB DUP2 MSTORE SWAP1 PUSH1 0x40 MSTORE DUP1 MLOAD SWAP1 PUSH1 0x20 ADD KECCAK256 SUB PUSH2 0x353 JUMPI PUSH1 0x1 SWAP2 POP POP PUSH2 0x366 JUMP JUMPDEST DUP1 DUP1 PUSH1 0x1 ADD SWAP2 POP POP PUSH2 0x2C5 JUMP JUMPDEST POP PUSH1 0x0 SWAP1 POP JUMPDEST SWAP2 SWAP1 POP JUMP JUMPDEST PUSH1 0x0 PUSH1 0x40 MLOAD SWAP1 POP SWAP1 JUMP JUMPDEST PUSH1 0x0 DUP1 REVERT JUMPDEST PUSH1 0x0 DUP1 REVERT JUMPDEST PUSH1 0x0 DUP1 REVERT JUMPDEST PUSH1 0x0 DUP1 REVERT JUMPDEST PUSH1 0x0 PUSH1 0x1F NOT PUSH1 0x1F DUP4 ADD AND SWAP1 POP SWAP2 SWAP1 POP JUMP JUMPDEST PUSH32 0x4E487B7100000000000000000000000000000000000000000000000000000000 PUSH1 0x0 MSTORE PUSH1 0x41 PUSH1 0x4 MSTORE PUSH1 0x24 PUSH1 0x0 REVERT JUMPDEST PUSH2 0x3D2 DUP3 PUSH2 0x389 JUMP JUMPDEST DUP2 ADD DUP2 DUP2 LT PUSH8 0xFFFFFFFFFFFFFFFF DUP3 GT OR ISZERO PUSH2 0x3F1 JUMPI PUSH2 0x3F0 PUSH2 0x39A JUMP JUMPDEST JUMPDEST DUP1 PUSH1 0x40 MSTORE POP POP POP JUMP JUMPDEST PUSH1 0x0 PUSH2 0x404 PUSH2 0x36B JUMP JUMPDEST SWAP1 POP PUSH2 0x410 DUP3 DUP3 PUSH2 0x3C9 JUMP JUMPDEST SWAP2 SWAP1 POP JUMP JUMPDEST PUSH1 0x0 PUSH8 0xFFFFFFFFFFFFFFFF DUP3 GT ISZERO PUSH2 0x430 JUMPI PUSH2 0x42F PUSH2 0x39A JUMP JUMPDEST JUMPDEST PUSH2 0x439 DUP3 PUSH2 0x389 JUMP JUMPDEST SWAP1 POP PUSH1 0x20 DUP2 ADD SWAP1 POP SWAP2 SWAP1 POP JUMP JUMPDEST DUP3 DUP2 DUP4 CALLDATACOPY PUSH1 0x0 DUP4 DUP4 ADD MSTORE POP POP POP JUMP JUMPDEST PUSH1 0x0 PUSH2 0x468 PUSH2 0x463 DUP5 PUSH2 0x415 JUMP JUMPDEST PUSH2 0x3FA JUMP JUMPDEST SWAP1 POP DUP3 DUP2 MSTORE PUSH1 0x20 DUP2 ADD DUP5 DUP5 DUP5 ADD GT ISZERO PUSH2 0x484 JUMPI PUSH2 0x483 PUSH2 0x384 JUMP JUMPDEST JUMPDEST PUSH2 0x48F DUP5 DUP3 DUP6 PUSH2 0x446 JUMP JUMPDEST POP SWAP4 SWAP3 POP POP POP JUMP JUMPDEST PUSH1 0x0 DUP3 PUSH1 0x1F DUP4 ADD SLT PUSH2 0x4AC JUMPI PUSH2 0x4AB PUSH2 0x37F JUMP JUMPDEST JUMPDEST DUP2 CALLDATALOAD PUSH2 0x4BC DUP5 DUP3 PUSH1 0x20 DUP7 ADD PUSH2 0x455 JUMP JUMPDEST SWAP2 POP POP SWAP3 SWAP2 POP POP JUMP JUMPDEST PUSH1 0x0 DUP1 PUSH1 0x40 DUP4 DUP6 SUB SLT ISZERO PUSH2 0x4DC JUMPI PUSH2 0x4DB PUSH2 0x375 JUMP JUMPDEST JUMPDEST PUSH1 0x0 DUP4 ADD CALLDATALOAD PUSH8 0xFFFFFFFFFFFFFFFF DUP2 GT ISZERO PUSH2 0x4FA JUMPI PUSH2 0x4F9 PUSH2 0x37A JUMP JUMPDEST JUMPDEST PUSH2 0x506 DUP6 DUP3 DUP7 ADD PUSH2 0x497 JUMP JUMPDEST SWAP3 POP POP PUSH1 0x20 DUP4 ADD CALLDATALOAD PUSH8 0xFFFFFFFFFFFFFFFF DUP2 GT ISZERO PUSH2 0x527 JUMPI PUSH2 0x526 PUSH2 0x37A JUMP JUMPDEST JUMPDEST PUSH2 0x533 DUP6 DUP3 DUP7 ADD PUSH2 0x497 JUMP JUMPDEST SWAP2 POP POP SWAP3 POP SWAP3 SWAP1 POP JUMP JUMPDEST PUSH1 0x0 DUP2 SWAP1 POP SWAP2 SWAP1 POP JUMP JUMPDEST PUSH2 0x550 DUP2 PUSH2 0x53D JUMP JUMPDEST DUP3 MSTORE POP POP JUMP JUMPDEST PUSH1 0x0 PUSH1 0x20 DUP3 ADD SWAP1 POP PUSH2 0x56B PUSH1 0x0 DUP4 ADD DUP5 PUSH2 0x547 JUMP JUMPDEST SWAP3 SWAP2 POP POP JUMP JUMPDEST PUSH1 0x0 DUP2 SWAP1 POP SWAP2 SWAP1 POP JUMP JUMPDEST PUSH2 0x584 DUP2 PUSH2 0x571 JUMP JUMPDEST DUP2 EQ PUSH2 0x58F JUMPI PUSH1 0x0 DUP1 REVERT JUMPDEST POP JUMP JUMPDEST PUSH1 0x0 DUP2 CALLDATALOAD SWAP1 POP PUSH2 0x5A1 DUP2 PUSH2 0x57B JUMP JUMPDEST SWAP3 SWAP2 POP POP JUMP JUMPDEST PUSH1 0x0 PUSH1 0x20 DUP3 DUP5 SUB SLT ISZERO PUSH2 0x5BD JUMPI PUSH2 0x5BC PUSH2 0x375 JUMP JUMPDEST JUMPDEST PUSH1 0x0 PUSH2 0x5CB DUP5 DUP3 DUP6 ADD PUSH2 0x592 JUMP JUMPDEST SWAP2 POP POP SWAP3 SWAP2 POP POP JUMP JUMPDEST PUSH1 0x0 DUP2 MLOAD SWAP1 POP SWAP2 SWAP1 POP JUMP JUMPDEST PUSH1 0x0 DUP3 DUP3 MSTORE PUSH1 0x20 DUP3 ADD SWAP1 POP SWAP3 SWAP2 POP POP JUMP JUMPDEST PUSH1 0x0 JUMPDEST DUP4 DUP2 LT ISZERO PUSH2 0x60E JUMPI DUP1 DUP3 ADD MLOAD DUP2 DUP5 ADD MSTORE PUSH1 0x20 DUP2 ADD SWAP1 POP PUSH2 0x5F3 JUMP JUMPDEST PUSH1 0x0 DUP5 DUP5 ADD MSTORE POP POP POP POP JUMP JUMPDEST PUSH1 0x0 PUSH2 0x625 DUP3 PUSH2 0x5D4 JUMP JUMPDEST PUSH2 0x62F DUP2 DUP6 PUSH2 0x5DF JUMP JUMPDEST SWAP4 POP PUSH2 0x63F DUP2 DUP6 PUSH1 0x20 DUP7 ADD PUSH2 0x5F0 JUMP JUMPDEST PUSH2 0x648 DUP2 PUSH2 0x389 JUMP JUMPDEST DUP5 ADD SWAP2 POP POP SWAP3 SWAP2 POP POP JUMP JUMPDEST PUSH1 0x0 PUSH1 0x60 DUP3 ADD SWAP1 POP DUP2 DUP2 SUB PUSH1 0x0 DUP4 ADD MSTORE PUSH2 0x66D DUP2 DUP7 PUSH2 0x61A JUMP JUMPDEST SWAP1 POP DUP2 DUP2 SUB PUSH1 0x20 DUP4 ADD MSTORE PUSH2 0x681 DUP2 DUP6 PUSH2 0x61A JUMP JUMPDEST SWAP1 POP PUSH2 0x690 PUSH1 0x40 DUP4 ADD DUP5 PUSH2 0x547 JUMP JUMPDEST SWAP5 SWAP4 POP POP POP POP JUMP JUMPDEST PUSH1 0x0 PUSH1 0x20 DUP3 DUP5 SUB SLT ISZERO PUSH2 0x6AE JUMPI PUSH2 0x6AD PUSH2 0x375 JUMP JUMPDEST JUMPDEST PUSH1 0x0 DUP3 ADD CALLDATALOAD PUSH8 0xFFFFFFFFFFFFFFFF DUP2 GT ISZERO PUSH2 0x6CC JUMPI PUSH2 0x6CB PUSH2 0x37A JUMP JUMPDEST JUMPDEST PUSH2 0x6D8 DUP5 DUP3 DUP6 ADD PUSH2 0x497 JUMP JUMPDEST SWAP2 POP POP SWAP3 SWAP2 POP POP JUMP JUMPDEST PUSH1 0x0 DUP2 ISZERO ISZERO SWAP1 POP SWAP2 SWAP1 POP JUMP JUMPDEST PUSH2 0x6F6 DUP2 PUSH2 0x6E1 JUMP JUMPDEST DUP3 MSTORE POP POP JUMP JUMPDEST PUSH1 0x0 PUSH1 0x20 DUP3 ADD SWAP1 POP PUSH2 0x711 PUSH1 0x0 DUP4 ADD DUP5 PUSH2 0x6ED JUMP JUMPDEST SWAP3 SWAP2 POP POP JUMP JUMPDEST PUSH32 0x4E487B7100000000000000000000000000000000000000000000000000000000 PUSH1 0x0 MSTORE PUSH1 0x22 PUSH1 0x4 MSTORE PUSH1 0x24 PUSH1 0x0 REVERT JUMPDEST PUSH1 0x0 PUSH1 0x2 DUP3 DIV SWAP1 POP PUSH1 0x1 DUP3 AND DUP1 PUSH2 0x75E JUMPI PUSH1 0x7F DUP3 AND SWAP2 POP JUMPDEST PUSH1 0x20 DUP3 LT DUP2 SUB PUSH2 0x771 JUMPI PUSH2 0x770 PUSH2 0x717 JUMP JUMPDEST JUMPDEST POP SWAP2 SWAP1 POP JUMP JUMPDEST PUSH1 0x0 DUP2 SWAP1 POP DUP2 PUSH1 0x0 MSTORE PUSH1 0x20 PUSH1 0x0 KECCAK256 SWAP1 POP SWAP2 SWAP1 POP JUMP JUMPDEST PUSH1 0x0 PUSH1 0x20 PUSH1 0x1F DUP4 ADD DIV SWAP1 POP SWAP2 SWAP1 POP JUMP JUMPDEST PUSH1 0x0 DUP3 DUP3 SHL SWAP1 POP SWAP3 SWAP2 POP POP JUMP JUMPDEST PUSH1 0x0 PUSH1 0x8 DUP4 MUL PUSH2 0x7D9 PUSH32 0xFFFFFFFFFFFFFFFFFFFFFFFFFFFFFFFFFFFFFFFFFFFFFFFFFFFFFFFFFFFFFFFF DUP3 PUSH2 0x79C JUMP JUMPDEST PUSH2 0x7E3 DUP7 DUP4 PUSH2 0x79C JUMP JUMPDEST SWAP6 POP DUP1 NOT DUP5 AND SWAP4 POP DUP1 DUP7 AND DUP5 OR SWAP3 POP POP POP SWAP4 SWAP3 POP POP POP JUMP JUMPDEST PUSH1 0x0 DUP2 SWAP1 POP SWAP2 SWAP1 POP JUMP JUMPDEST PUSH1 0x0 PUSH2 0x820 PUSH2 0x81B PUSH2 0x816 DUP5 PUSH2 0x571 JUMP JUMPDEST PUSH2 0x7FB JUMP JUMPDEST PUSH2 0x571 JUMP JUMPDEST SWAP1 POP SWAP2 SWAP1 POP JUMP JUMPDEST PUSH1 0x0 DUP2 SWAP1 POP SWAP2 SWAP1 POP JUMP JUMPDEST PUSH2 0x83A DUP4 PUSH2 0x805 JUMP JUMPDEST PUSH2 0x84E PUSH2 0x846 DUP3 PUSH2 0x827 JUMP JUMPDEST DUP5 DUP5 SLOAD PUSH2 0x7A9 JUMP JUMPDEST DUP3 SSTORE POP POP POP POP JUMP JUMPDEST PUSH1 0x0 SWAP1 JUMP JUMPDEST PUSH2 0x863 PUSH2 0x856 JUMP JUMPDEST PUSH2 0x86E DUP2 DUP5 DUP5 PUSH2 0x831 JUMP JUMPDEST POP POP POP JUMP JUMPDEST JUMPDEST DUP2 DUP2 LT ISZERO PUSH2 0x892 JUMPI PUSH2 0x887 PUSH1 0x0 DUP3 PUSH2 0x85B JUMP JUMPDEST PUSH1 0x1 DUP2 ADD SWAP1 POP PUSH2 0x874 JUMP JUMPDEST POP POP JUMP JUMPDEST PUSH1 0x1F DUP3 GT ISZERO PUSH2 0x8D7 JUMPI PUSH2 0x8A8 DUP2 PUSH2 0x777 JUMP JUMPDEST PUSH2 0x8B1 DUP5 PUSH2 0x78C JUMP JUMPDEST DUP2 ADD PUSH1 0x20 DUP6 LT ISZERO PUSH2 0x8C0 JUMPI DUP2 SWAP1 POP JUMPDEST PUSH2 0x8D4 PUSH2 0x8CC DUP6 PUSH2 0x78C JUMP JUMPDEST DUP4 ADD DUP3 PUSH2 0x873 JUMP JUMPDEST POP POP JUMPDEST POP POP POP JUMP JUMPDEST PUSH1 0x0 DUP3 DUP3 SHR SWAP1 POP SWAP3 SWAP2 POP POP JUMP JUMPDEST PUSH1 0x0 PUSH2 0x8FA PUSH1 0x0 NOT DUP5 PUSH1 0x8 MUL PUSH2 0x8DC JUMP JUMPDEST NOT DUP1 DUP4 AND SWAP2 POP POP SWAP3 SWAP2 POP POP JUMP JUMPDEST PUSH1 0x0 PUSH2 0x913 DUP4 DUP4 PUSH2 0x8E9 JUMP JUMPDEST SWAP2 POP DUP3 PUSH1 0x2 MUL DUP3 OR SWAP1 POP SWAP3 SWAP2 POP POP JUMP JUMPDEST PUSH2 0x92C DUP3 PUSH2 0x5D4 JUMP JUMPDEST PUSH8 0xFFFFFFFFFFFFFFFF DUP2 GT ISZERO PUSH2 0x945 JUMPI PUSH2 0x944 PUSH2 0x39A JUMP JUMPDEST JUMPDEST PUSH2 0x94F DUP3 SLOAD PUSH2 0x746 JUMP JUMPDEST PUSH2 0x95A DUP3 DUP3 DUP6 PUSH2 0x896 JUMP JUMPDEST PUSH1 0x0 PUSH1 0x20 SWAP1 POP PUSH1 0x1F DUP4 GT PUSH1 0x1 DUP2 EQ PUSH2 0x98D JUMPI PUSH1 0x0 DUP5 ISZERO PUSH2 0x97B JUMPI DUP3 DUP8 ADD MLOAD SWAP1 POP JUMPDEST PUSH2 0x985 DUP6 DUP3 PUSH2 0x907 JUMP JUMPDEST DUP7 SSTORE POP PUSH2 0x9ED JUMP JUMPDEST PUSH1 0x1F NOT DUP5 AND PUSH2 0x99B DUP7 PUSH2 0x777 JUMP JUMPDEST PUSH1 0x0 JUMPDEST DUP3 DUP2 LT ISZERO PUSH2 0x9C3 JUMPI DUP5 DUP10 ADD MLOAD DUP3 SSTORE PUSH1 0x1 DUP3 ADD SWAP2 POP PUSH1 0x20 DUP6 ADD SWAP5 POP PUSH1 0x20 DUP2 ADD SWAP1 POP PUSH2 0x99E JUMP JUMPDEST DUP7 DUP4 LT ISZERO PUSH2 0x9E0 JUMPI DUP5 DUP10 ADD MLOAD PUSH2 0x9DC PUSH1 0x1F DUP10 AND DUP3 PUSH2 0x8E9 JUMP JUMPDEST DUP4 SSTORE POP JUMPDEST PUSH1 0x1 PUSH1 0x2 DUP9 MUL ADD DUP9 SSTORE POP POP POP JUMPDEST POP POP POP POP POP POP JUMP JUMPDEST PUSH1 0x0 DUP2 SWAP1 POP SWAP3 SWAP2 POP POP JUMP JUMPDEST PUSH1 0x0 PUSH2 0xA0B DUP3 PUSH2 0x5D4 JUMP JUMPDEST PUSH2 0xA15 DUP2 DUP6 PUSH2 0x9F5 JUMP JUMPDEST SWAP4 POP PUSH2 0xA25 DUP2 DUP6 PUSH1 0x20 DUP7 ADD PUSH2 0x5F0 JUMP JUMPDEST DUP1 DUP5 ADD SWAP2 POP POP SWAP3 SWAP2 POP POP JUMP JUMPDEST PUSH1 0x0 PUSH2 0xA3D DUP3 DUP5 PUSH2 0xA00 JUMP JUMPDEST SWAP2 POP DUP2 SWAP1 POP SWAP3 SWAP2 POP POP JUMP JUMPDEST PUSH32 0x4E487B7100000000000000000000000000000000000000000000000000000000 PUSH1 0x0 MSTORE PUSH1 0x32 PUSH1 0x4 MSTORE PUSH1 0x24 PUSH1 0x0 REVERT JUMPDEST PUSH1 0x0 DUP2 SLOAD PUSH2 0xA84 DUP2 PUSH2 0x746 JUMP JUMPDEST PUSH2 0xA8E DUP2 DUP7 PUSH2 0x9F5 JUMP JUMPDEST SWAP5 POP PUSH1 0x1 DUP3 AND PUSH1 0x0 DUP2 EQ PUSH2 0xAA9 JUMPI PUSH1 0x1 DUP2 EQ PUSH2 0xABE JUMPI PUSH2 0xAF1 JUMP JUMPDEST PUSH1 0xFF NOT DUP4 AND DUP7 MSTORE DUP2 ISZERO ISZERO DUP3 MUL DUP7 ADD SWAP4 POP PUSH2 0xAF1 JUMP JUMPDEST PUSH2 0xAC7 DUP6 PUSH2 0x777 JUMP JUMPDEST PUSH1 0x0 JUMPDEST DUP4 DUP2 LT ISZERO PUSH2 0xAE9 JUMPI DUP2 SLOAD DUP2 DUP10 ADD MSTORE PUSH1 0x1 DUP3 ADD SWAP2 POP PUSH1 0x20 DUP2 ADD SWAP1 POP PUSH2 0xACA JUMP JUMPDEST DUP4 DUP9 ADD SWAP6 POP POP POP JUMPDEST POP POP POP SWAP3 SWAP2 POP POP JUMP JUMPDEST PUSH1 0x0 PUSH2 0xB06 DUP3 DUP5 PUSH2 0xA77 JUMP JUMPDEST SWAP2 POP DUP2 SWAP1 POP SWAP3 SWAP2 POP POP JUMP INVALID LOG2 PUSH5 0x6970667358 0x22 SLT KECCAK256 PUSH28 0x9F0FA88C91C1E4D1D4802B30FD867EEDE97FC9464DDA52819968ADD7 0xD7 GAS PUSH27 0x64736F6C6343000818003300000000000000000000000000000000 "},"methodIdentifiers":{"hashData(uint256)":"9512182e","searchData(string)":"dbf6cb72","storeHashData(string,string)":"7f2ceeab"}}}}}