{
  "_format": "hh-sol-artifact-1",
  "contractName": "DataVal",
  "sourceName": "contracts/DataVal.sol",
  "abi": [
    {
      "inputs": [
        {
          "internalType": "uint256",
          "name": "",
          "type": "uint256"
        }
      ],
      "name": "hashData",
      "outputs": [
        {
          "internalType": "string",
          "name": "username",
          "type": "string"
        },
        {
          "internalType": "string",
          "name": "data",
          "type": "string"
        },
        {
          "internalType": "bytes32",
          "name": "Hash",
          "type": "bytes32"
        }
      ],
      "stateMutability": "view",
      "type": "function"
    },
    {
      "inputs": [
        {
          "internalType": "string",
          "name": "_data",
          "type": "string"
        }
      ],
      "name": "searchData",
      "outputs": [
        {
          "internalType": "bool",
          "name": "",
          "type": "bool"
        }
      ],
      "stateMutability": "view",
      "type": "function"
    },
    {
      "inputs": [
        {
          "internalType": "string",
          "name": "_username",
          "type": "string"
        },
        {
          "internalType": "string",
          "name": "_data",
          "type": "string"
        }
      ],
      "name": "storeHashData",
      "outputs": [
        {
          "internalType": "bytes32",
          "name": "",
          "type": "bytes32"
        }
      ],
      "stateMutability": "nonpayable",
      "type": "function"
    }
  ],
  "bytecode": "0x608060405234801561001057600080fd5b50610b47806100206000396000f3fe608060405234801561001057600080fd5b50600436106100415760003560e01c80637f2ceeab146100465780639512182e14610076578063dbf6cb72146100a8575b600080fd5b610060600480360381019061005b91906104c5565b6100d8565b60405161006d9190610556565b60405180910390f35b610090600480360381019061008b91906105a7565b610173565b60405161009f93929190610653565b60405180910390f35b6100c260048036038101906100bd9190610698565b6102bd565b6040516100cf91906106fc565b60405180910390f35b6000808280519060200120905060006040518060600160405280868152602001858152602001838152509050600081908060018154018082558091505060019003906000526020600020906003020160009091909190915060008201518160000190816101459190610923565b50602082015181600101908161015b9190610923565b50604082015181600201555050819250505092915050565b6000818154811061018357600080fd5b90600052602060002090600302016000915090508060000180546101a690610746565b80601f01602080910402602001604051908101604052809291908181526020018280546101d290610746565b801561021f5780601f106101f45761010080835404028352916020019161021f565b820191906000526020600020905b81548152906001019060200180831161020257829003601f168201915b50505050509080600101805461023490610746565b80601f016020809104026020016040519081016040528092919081815260200182805461026090610746565b80156102ad5780601f10610282576101008083540402835291602001916102ad565b820191906000526020600020905b81548152906001019060200180831161029057829003601f168201915b5050505050908060020154905083565b600080600090505b60008054905081101561036057826040516020016102e39190610a31565b604051602081830303815290604052805190602001206000828154811061030d5761030c610a48565b5b906000526020600020906003020160010160405160200161032e9190610afa565b6040516020818303038152906040528051906020012003610353576001915050610366565b80806001019150506102c5565b50600090505b919050565b6000604051905090565b600080fd5b600080fd5b600080fd5b600080fd5b6000601f19601f8301169050919050565b7f4e487b7100000000000000000000000000000000000000000000000000000000600052604160045260246000fd5b6103d282610389565b810181811067ffffffffffffffff821117156103f1576103f061039a565b5b80604052505050565b600061040461036b565b905061041082826103c9565b919050565b600067ffffffffffffffff8211156104305761042f61039a565b5b61043982610389565b9050602081019050919050565b82818337600083830152505050565b600061046861046384610415565b6103fa565b90508281526020810184848401111561048457610483610384565b5b61048f848285610446565b509392505050565b600082601f8301126104ac576104ab61037f565b5b81356104bc848260208601610455565b91505092915050565b600080604083850312156104dc576104db610375565b5b600083013567ffffffffffffffff8111156104fa576104f961037a565b5b61050685828601610497565b925050602083013567ffffffffffffffff8111156105275761052661037a565b5b61053385828601610497565b9150509250929050565b6000819050919050565b6105508161053d565b82525050565b600060208201905061056b6000830184610547565b92915050565b6000819050919050565b61058481610571565b811461058f57600080fd5b50565b6000813590506105a18161057b565b92915050565b6000602082840312156105bd576105bc610375565b5b60006105cb84828501610592565b91505092915050565b600081519050919050565b600082825260208201905092915050565b60005b8381101561060e5780820151818401526020810190506105f3565b60008484015250505050565b6000610625826105d4565b61062f81856105df565b935061063f8185602086016105f0565b61064881610389565b840191505092915050565b6000606082019050818103600083015261066d818661061a565b90508181036020830152610681818561061a565b90506106906040830184610547565b949350505050565b6000602082840312156106ae576106ad610375565b5b600082013567ffffffffffffffff8111156106cc576106cb61037a565b5b6106d884828501610497565b91505092915050565b60008115159050919050565b6106f6816106e1565b82525050565b600060208201905061071160008301846106ed565b92915050565b7f4e487b7100000000000000000000000000000000000000000000000000000000600052602260045260246000fd5b6000600282049050600182168061075e57607f821691505b60208210810361077157610770610717565b5b50919050565b60008190508160005260206000209050919050565b60006020601f8301049050919050565b600082821b905092915050565b6000600883026107d97fffffffffffffffffffffffffffffffffffffffffffffffffffffffffffffffff8261079c565b6107e3868361079c565b95508019841693508086168417925050509392505050565b6000819050919050565b600061082061081b61081684610571565b6107fb565b610571565b9050919050565b6000819050919050565b61083a83610805565b61084e61084682610827565b8484546107a9565b825550505050565b600090565b610863610856565b61086e818484610831565b505050565b5b818110156108925761088760008261085b565b600181019050610874565b5050565b601f8211156108d7576108a881610777565b6108b18461078c565b810160208510156108c0578190505b6108d46108cc8561078c565b830182610873565b50505b505050565b600082821c905092915050565b60006108fa600019846008026108dc565b1980831691505092915050565b600061091383836108e9565b9150826002028217905092915050565b61092c826105d4565b67ffffffffffffffff8111156109455761094461039a565b5b61094f8254610746565b61095a828285610896565b600060209050601f83116001811461098d576000841561097b578287015190505b6109858582610907565b8655506109ed565b601f19841661099b86610777565b60005b828110156109c35784890151825560018201915060208501945060208101905061099e565b868310156109e057848901516109dc601f8916826108e9565b8355505b6001600288020188555050505b505050505050565b600081905092915050565b6000610a0b826105d4565b610a1581856109f5565b9350610a258185602086016105f0565b80840191505092915050565b6000610a3d8284610a00565b915081905092915050565b7f4e487b7100000000000000000000000000000000000000000000000000000000600052603260045260246000fd5b60008154610a8481610746565b610a8e81866109f5565b94506001821660008114610aa95760018114610abe57610af1565b60ff1983168652811515820286019350610af1565b610ac785610777565b60005b83811015610ae957815481890152600182019150602081019050610aca565b838801955050505b50505092915050565b6000610b068284610a77565b91508190509291505056fea26469706673582212207b9f0fa88c91c1e4d1d4802b30fd867eede97fc9464dda52819968add7d75a7a64736f6c63430008180033",
  "linkReferences": {},
  "deployedLinkReferences": {}
}